:10096F000213001902190019021B001E020C0000CD
:10097F00020800000211000A020E0000020A000025
:0B098F0002150000021700000110001C
:10088C00C2B4C2B5C2B6C2B7C2A51209E020A6074F
:10089C0030A6FDD2A5D28C12099BE5142402FFE4EC
:1008AC003513FED3E51A9FE5199E4005120A0980FF
:1008BC00DCE51424FEFFE51334FFFEC3E51A9FE5C7
:1008CC00199E50051209F680C4C2B4C2B5C2B6C294
:0308DC00B780BA28
:1009E000758911758D4B758BFED2AB758C4B758AE5
:0609F000FED2A9D2AF22E5
:100A0900E510700DD2B4C2B5C2B6D2B7D28E751088
:020A19000122B8
:1009F600E5106401700CC2B4D2B5D2B6C2B7D28EBD
:030A0600F51022C6
:10099B00C2B1120A1BD2B1120A1B120A1B120A1B7A
:1009AB00120A1BD2B0120A1BC2B0AF90EF75F00245
:0709BB00A485F019F51A22D2
:03000B0002092ABD
:10092A00C0E0C0D0050DE50D7002050C6414450C3D
:10093A00700E0509E50970020508750C00750D00B1
:10094A00C3E509951CE508951B400D30A50AC2A50B
:10095A00C28C750800750900758C4B758AFEC28DAC
:05096A00D0D0D0E03206
:03001B000208DFF9
:1008DF00C0E0C0D0050FE50F7002050E6414450E81
:1008EF00700E050BE50B7002050A750E00750F00F3
:1008FF00C3E50B9512E50A95114013C28E750A00D8
:10090F00750B00C2B4C2B5C2B6C2B76310FF758D06
:0B091F004B758BFEC28FD0D0D0E032B1
:1009C200E4FFFE758D4B758BFED28E308FFDC28E8D
:0D09D200C28F0FBF00010EEF64144E70E6DF
:0109DF0022F5
:100A1B00758D4B758BFED28E308FFDC28EC28F22A1
:03000000020800F3
:0C080000787FE4F6D8FD75811C020847E3
:10080C0002088CE493A3F8E493A34003F68001F26E
:10081C0008DFF48029E493A3F85407240CC8C333ED
:10082C00C4540F4420C8834004F456800146F6DFBC
:10083C00E4800B010204081020408090096FE47ED4
:10084C00019360BCA3FF543F30E509541FFEE493B1
:10085C00A360010ECF54C025E060A840B8E493A378
:10086C00FAE493A3F8E493A3C8C582C8CAC583CAA3
:10087C00F0A3C8C582C8CAC583CADFE9DEE780BE5B
:01099A00005C
:00000001FF
